{
  "contractName": "freelance",
  "abi": [
    {
      "inputs": [
        {
          "internalType": "contract RupeeToken",
          "name": "_tokenContract",
          "type": "address"
        }
      ],
      "payable": false,
      "stateMutability": "nonpayable",
      "type": "constructor"
    },
    {
      "anonymous": false,
      "inputs": [
        {
          "indexed": false,
          "internalType": "address",
          "name": "_buyer",
          "type": "address"
        },
        {
          "indexed": false,
          "internalType": "uint256",
          "name": "_amount",
          "type": "uint256"
        }
      ],
      "name": "Sell",
      "type": "event"
    },
    {
      "constant": true,
      "inputs": [
        {
          "internalType": "uint256",
          "name": "",
          "type": "uint256"
        }
      ],
      "name": "AssetStore",
      "outputs": [
        {
          "internalType": "uint256",
          "name": "id",
          "type": "uint256"
        },
        {
          "internalType": "string",
          "name": "date",
          "type": "string"
        },
        {
          "internalType": "address",
          "name": "senderaddress",
          "type": "address"
        },
        {
          "internalType": "address",
          "name": "receiveraddress",
          "type": "address"
        },
        {
          "internalType": "uint256",
          "name": "amount",
          "type": "uint256"
        }
      ],
      "payable": false,
      "stateMutability": "view",
      "type": "function"
    },
    {
      "constant": true,
      "inputs": [],
      "name": "assetCount",
      "outputs": [
        {
          "internalType": "uint256",
          "name": "",
          "type": "uint256"
        }
      ],
      "payable": false,
      "stateMutability": "view",
      "type": "function"
    },
    {
      "constant": true,
      "inputs": [],
      "name": "freeaddress",
      "outputs": [
        {
          "internalType": "address",
          "name": "",
          "type": "address"
        }
      ],
      "payable": false,
      "stateMutability": "view",
      "type": "function"
    },
    {
      "constant": true,
      "inputs": [
        {
          "internalType": "address",
          "name": "",
          "type": "address"
        }
      ],
      "name": "identity",
      "outputs": [
        {
          "internalType": "string",
          "name": "",
          "type": "string"
        }
      ],
      "payable": false,
      "stateMutability": "view",
      "type": "function"
    },
    {
      "constant": true,
      "inputs": [],
      "name": "tokenContract",
      "outputs": [
        {
          "internalType": "contract RupeeToken",
          "name": "",
          "type": "address"
        }
      ],
      "payable": false,
      "stateMutability": "view",
      "type": "function"
    },
    {
      "constant": true,
      "inputs": [],
      "name": "tokenPrice",
      "outputs": [
        {
          "internalType": "uint256",
          "name": "",
          "type": "uint256"
        }
      ],
      "payable": false,
      "stateMutability": "view",
      "type": "function"
    },
    {
      "constant": true,
      "inputs": [],
      "name": "tokensSold",
      "outputs": [
        {
          "internalType": "uint256",
          "name": "",
          "type": "uint256"
        }
      ],
      "payable": false,
      "stateMutability": "view",
      "type": "function"
    },
    {
      "constant": true,
      "inputs": [
        {
          "internalType": "uint256",
          "name": "_id",
          "type": "uint256"
        }
      ],
      "name": "getAsset",
      "outputs": [
        {
          "internalType": "string",
          "name": "",
          "type": "string"
        },
        {
          "internalType": "address",
          "name": "",
          "type": "address"
        },
        {
          "internalType": "address",
          "name": "",
          "type": "address"
        },
        {
          "internalType": "uint256",
          "name": "",
          "type": "uint256"
        }
      ],
      "payable": false,
      "stateMutability": "view",
      "type": "function"
    },
    {
      "constant": false,
      "inputs": [
        {
          "internalType": "string",
          "name": "name",
          "type": "string"
        },
        {
          "internalType": "address",
          "name": "add",
          "type": "address"
        },
        {
          "internalType": "string",
          "name": "id",
          "type": "string"
        }
      ],
      "name": "addidentity",
      "outputs": [],
      "payable": false,
      "stateMutability": "nonpayable",
      "type": "function"
    },
    {
      "constant": false,
      "inputs": [
        {
          "internalType": "uint256",
          "name": "payrate",
          "type": "uint256"
        },
        {
          "internalType": "uint256",
          "name": "duration",
          "type": "uint256"
        },
        {
          "internalType": "uint256",
          "name": "leaves",
          "type": "uint256"
        },
        {
          "internalType": "uint256",
          "name": "leavecost",
          "type": "uint256"
        },
        {
          "internalType": "uint256",
          "name": "delayeddays",
          "type": "uint256"
        },
        {
          "internalType": "uint256",
          "name": "delaycostperday",
          "type": "uint256"
        },
        {
          "internalType": "address",
          "name": "from",
          "type": "address"
        },
        {
          "internalType": "address",
          "name": "to",
          "type": "address"
        },
        {
          "internalType": "string",
          "name": "_date",
          "type": "string"
        }
      ],
      "name": "calculatetokens",
      "outputs": [
        {
          "internalType": "uint256",
          "name": "",
          "type": "uint256"
        }
      ],
      "payable": true,
      "stateMutability": "payable",
      "type": "function"
    },
    {
      "constant": false,
      "inputs": [
        {
          "internalType": "address",
          "name": "from",
          "type": "address"
        },
        {
          "internalType": "address",
          "name": "to",
          "type": "address"
        },
        {
          "internalType": "uint256",
          "name": "nooftokens",
          "type": "uint256"
        },
        {
          "internalType": "string",
          "name": "date",
          "type": "string"
        }
      ],
      "name": "sendtokens",
      "outputs": [],
      "payable": false,
      "stateMutability": "nonpayable",
      "type": "function"
    },
    {
      "constant": true,
      "inputs": [
        {
          "internalType": "string",
          "name": "name",
          "type": "string"
        }
      ],
      "name": "getidentity",
      "outputs": [
        {
          "internalType": "address",
          "name": "",
          "type": "address"
        }
      ],
      "payable": false,
      "stateMutability": "view",
      "type": "function"
    },
    {
      "constant": true,
      "inputs": [
        {
          "internalType": "address",
          "name": "add",
          "type": "address"
        }
      ],
      "name": "getIdentityType",
      "outputs": [
        {
          "internalType": "string",
          "name": "",
          "type": "string"
        }
      ],
      "payable": false,
      "stateMutability": "view",
      "type": "function"
    },
    {
      "constant": true,
      "inputs": [
        {
          "internalType": "address",
          "name": "add",
          "type": "address"
        }
      ],
      "name": "getnamefromaddress",
      "outputs": [
        {
          "internalType": "string",
          "name": "",
          "type": "string"
        }
      ],
      "payable": false,
      "stateMutability": "view",
      "type": "function"
    },
    {
      "constant": false,
      "inputs": [
        {
          "internalType": "uint256",
          "name": "_numberOfTokens",
          "type": "uint256"
        }
      ],
      "name": "buyTokens",
      "outputs": [],
      "payable": true,
      "stateMutability": "payable",
      "type": "function"
    },
    {
      "constant": true,
      "inputs": [
        {
          "internalType": "address",
          "name": "addr",
          "type": "address"
        }
      ],
      "name": "getBalance",
      "outputs": [
        {
          "internalType": "uint256",
          "name": "",
          "type": "uint256"
        }
      ],
      "payable": false,
      "stateMutability": "view",
      "type": "function"
    }
  ],
  "bytecode": "0x6080604052600060095534801561001557600080fd5b50604051611e3b380380611e3b8339818101604052602081101561003857600080fd5b8101908080519060200190929190505050336000806101000a81548173ffffffffffffffffffffffffffffffffffffffff021916908373ffffffffffffffffffffffffffffffffffffffff16021790555080600160006101000a81548173ffffffffffffffffffffffffffffffffffffffff021916908373ffffffffffffffffffffffffffffffffffffffff1602179055506506baf25f100060028190555050611d54806100e76000396000f3fe6080604052600436106100f35760003560e01c8063a7fa4aa71161008a578063eac8f5b811610059578063eac8f5b8146109cb578063eafe7a7414610aec578063f0eb5e5414610b17578063f8b2cb4f14610be1576100f3565b8063a7fa4aa7146105b0578063affb2901146106b8578063b496ad9e14610837578063b71c524314610901576100f3565b8063518ab2a8116100c6578063518ab2a8146103db57806355a373d61461040657806369e94f9f1461045d5780637ff9b59614610585576100f3565b80631a435e0a146100f85780631f5ea0991461014f5780633610724e1461029b578063419490fe146102c9575b600080fd5b34801561010457600080fd5b5061010d610c46565b604051808273ffffffffffffffffffffffffffffffffffffffff1673ffffffffffffffffffffffffffffffffffffffff16815260200191505060405180910390f35b610285600480360361012081101561016657600080fd5b81019080803590602001909291908035906020019092919080359060200190929190803590602001909291908035906020019092919080359060200190929190803573ffffffffffffffffffffffffffffffffffffffff169060200190929190803573ffffffffffffffffffffffffffffffffffffffff169060200190929190803590602001906401000000008111156101ff57600080fd5b82018360208201111561021157600080fd5b8035906020019184600183028401116401000000008311171561023357600080fd5b91908080601f016020809104026020016040519081016040528093929190818152602001838380828437600081840152601f19601f820116905080830192505050505050509192919290505050610c6c565b6040518082815260200191505060405180910390f35b6102c7600480360360208110156102b157600080fd5b8101908080359060200190929190505050610f1a565b005b3480156102d557600080fd5b506103d9600480360360808110156102ec57600080fd5b81019080803573ffffffffffffffffffffffffffffffffffffffff169060200190929190803573ffffffffffffffffffffffffffffffffffffffff169060200190929190803590602001909291908035906020019064010000000081111561035357600080fd5b82018360208201111561036557600080fd5b8035906020019184600183028401116401000000008311171561038757600080fd5b91908080601f016020809104026020016040519081016040528093929190818152602001838380828437600081840152601f19601f820116905080830192505050505050509192919290505050611182565b005b3480156103e757600080fd5b506103f06113df565b6040518082815260200191505060405180910390f35b34801561041257600080fd5b5061041b6113e5565b604051808273ffffffffffffffffffffffffffffffffffffffff1673ffffffffffffffffffffffffffffffffffffffff16815260200191505060405180910390f35b34801561046957600080fd5b506104966004803603602081101561048057600080fd5b810190808035906020019092919050505061140b565b60405180868152602001806020018573ffffffffffffffffffffffffffffffffffffffff1673ffffffffffffffffffffffffffffffffffffffff1681526020018473ffffffffffffffffffffffffffffffffffffffff1673ffffffffffffffffffffffffffffffffffffffff168152602001838152602001828103825286818151815260200191508051906020019080838360005b8381101561054657808201518184015260208101905061052b565b50505050905090810190601f1680156105735780820380516001836020036101000a031916815260200191505b50965050505050505060405180910390f35b34801561059157600080fd5b5061059a611519565b6040518082815260200191505060405180910390f35b3480156105bc57600080fd5b50610676600480360360208110156105d357600080fd5b81019080803590602001906401000000008111156105f057600080fd5b82018360208201111561060257600080fd5b8035906020019184600183028401116401000000008311171561062457600080fd5b91908080601f016020809104026020016040519081016040528093929190818152602001838380828437600081840152601f19601f82011690508083019250505050505050919291929050505061151f565b604051808273ffffffffffffffffffffffffffffffffffffffff1673ffffffffffffffffffffffffffffffffffffffff16815260200191505060405180910390f35b3480156106c457600080fd5b50610835600480360360608110156106db57600080fd5b81019080803590602001906401000000008111156106f857600080fd5b82018360208201111561070a57600080fd5b8035906020019184600183028401116401000000008311171561072c57600080fd5b91908080601f016020809104026020016040519081016040528093929190818152602001838380828437600081840152601f19601f820116905080830192505050505050509192919290803573ffffffffffffffffffffffffffffffffffffffff169060200190929190803590602001906401000000008111156107af57600080fd5b8201836020820111156107c157600080fd5b803590602001918460018302840111640100000000831117156107e357600080fd5b91908080601f016020809104026020016040519081016040528093929190818152602001838380828437600081840152601f19601f8201169050808301925050505050505091929192905050506115b2565b005b34801561084357600080fd5b506108866004803603602081101561085a57600080fd5b81019080803573ffffffffffffffffffffffffffffffffffffffff169060200190929190505050611707565b6040518080602001828103825283818151815260200191508051906020019080838360005b838110156108c65780820151818401526020810190506108ab565b50505050905090810190601f1680156108f35780820380516001836020036101000a031916815260200191505b509250505060405180910390f35b34801561090d57600080fd5b506109506004803603602081101561092457600080fd5b81019080803573ffffffffffffffffffffffffffffffffffffffff1690602001909291905050506117e8565b6040518080602001828103825283818151815260200191508051906020019080838360005b83811015610990578082015181840152602081019050610975565b50505050905090810190601f1680156109bd5780820380516001836020036101000a031916815260200191505b509250505060405180910390f35b3480156109d757600080fd5b50610a04600480360360208110156109ee57600080fd5b81019080803590602001909291905050506118c9565b60405180806020018573ffffffffffffffffffffffffffffffffffffffff1673ffffffffffffffffffffffffffffffffffffffff1681526020018473ffffffffffffffffffffffffffffffffffffffff1673ffffffffffffffffffffffffffffffffffffffff168152602001838152602001828103825286818151815260200191508051906020019080838360005b83811015610aae578082015181840152602081019050610a93565b50505050905090810190601f168015610adb5780820380516001836020036101000a031916815260200191505b509550505050505060405180910390f35b348015610af857600080fd5b50610b01611a16565b6040518082815260200191505060405180910390f35b348015610b2357600080fd5b50610b6660048036036020811015610b3a57600080fd5b81019080803573ffffffffffffffffffffffffffffffffffffffff169060200190929190505050611a1c565b6040518080602001828103825283818151815260200191508051906020019080838360005b83811015610ba6578082015181840152602081019050610b8b565b50505050905090810190601f168015610bd35780820380516001836020036101000a031916815260200191505b509250505060405180910390f35b348015610bed57600080fd5b50610c3060048036036020811015610c0457600080fd5b81019080803573ffffffffffffffffffffffffffffffffffffffff169060200190929190505050611acc565b6040518082815260200191505060405180910390f35b600460009054906101000a900473ffffffffffffffffffffffffffffffffffffffff1681565b600080600080600080610c7f8f8f611bb4565b9450610c8b8d8d611bb4565b9350610c978b8b611bb4565b9250610ca38585611bc1565b9150610caf8284611bc1565b9050600160009054906101000a900473ffffffffffffffffffffffffffffffffffffffff1673ffffffffffffffffffffffffffffffffffffffff1663beabacc88a8a846040518463ffffffff1660e01b8152600401808473ffffffffffffffffffffffffffffffffffffffff1673ffffffffffffffffffffffffffffffffffffffff1681526020018373ffffffffffffffffffffffffffffffffffffffff1673ffffffffffffffffffffffffffffffffffffffff1681526020018281526020019350505050602060405180830381600087803b158015610d8e57600080fd5b505af1158015610da2573d6000803e3d6000fd5b505050506040513d6020811015610db857600080fd5b8101908080519060200190929190505050506009600081548092919060010191905055506040518060a0016040528060095481526020018881526020013373ffffffffffffffffffffffffffffffffffffffff1681526020018973ffffffffffffffffffffffffffffffffffffffff16815260200182815250600860006009548152602001908152602001600020600082015181600001556020820151816001019080519060200190610e6c929190611bfa565b5060408201518160020160006101000a81548173ffffffffffffffffffffffffffffffffffffffff021916908373ffffffffffffffffffffffffffffffffffffffff16021790555060608201518160030160006101000a81548173ffffffffffffffffffffffffffffffffffffffff021916908373ffffffffffffffffffffffffffffffffffffffff1602179055506080820151816004015590505050505050509998505050505050505050565b610f2681600254611bce565b3414610f3157600080fd5b80600160009054906101000a900473ffffffffffffffffffffffffffffffffffffffff1673ffffffffffffffffffffffffffffffffffffffff166370a08231306040518263ffffffff1660e01b8152600401808273ffffffffffffffffffffffffffffffffffffffff1673ffffffffffffffffffffffffffffffffffffffff16815260200191505060206040518083038186803b158015610fd157600080fd5b505afa158015610fe5573d6000803e3d6000fd5b505050506040513d6020811015610ffb57600080fd5b8101908080519060200190929190505050101561101757600080fd5b600160009054906101000a900473ffffffffffffffffffffffffffffffffffffffff1673ffffffffffffffffffffffffffffffffffffffff16637ce7c99033836040518363ffffffff1660e01b8152600401808373ffffffffffffffffffffffffffffffffffffffff1673ffffffffffffffffffffffffffffffffffffffff16815260200182815260200192505050602060405180830381600087803b1580156110c057600080fd5b505af11580156110d4573d6000803e3d6000fd5b505050506040513d60208110156110ea57600080fd5b810190808051906020019092919050505061110457600080fd5b806003600082825401925050819055507f5e5e995ce3133561afceaa51a9a154d5db228cd7525d34df5185582c18d3df093382604051808373ffffffffffffffffffffffffffffffffffffffff1673ffffffffffffffffffffffffffffffffffffffff1681526020018281526020019250505060405180910390a150565b600160009054906101000a900473ffffffffffffffffffffffffffffffffffffffff1673ffffffffffffffffffffffffffffffffffffffff1663beabacc88585856040518463ffffffff1660e01b8152600401808473ffffffffffffffffffffffffffffffffffffffff1673ffffffffffffffffffffffffffffffffffffffff1681526020018373ffffffffffffffffffffffffffffffffffffffff1673ffffffffffffffffffffffffffffffffffffffff1681526020018281526020019350505050602060405180830381600087803b15801561125f57600080fd5b505af1158015611273573d6000803e3d6000fd5b505050506040513d602081101561128957600080fd5b8101908080519060200190929190505050506009600081548092919060010191905055506040518060a0016040528060095481526020018281526020013373ffffffffffffffffffffffffffffffffffffffff1681526020018473ffffffffffffffffffffffffffffffffffffffff1681526020018381525060086000600954815260200190815260200160002060008201518160000155602082015181600101908051906020019061133d929190611bfa565b5060408201518160020160006101000a81548173ffffffffffffffffffffffffffffffffffffffff021916908373ffffffffffffffffffffffffffffffffffffffff16021790555060608201518160030160006101000a81548173ffffffffffffffffffffffffffffffffffffffff021916908373ffffffffffffffffffffffffffffffffffffffff1602179055506080820151816004015590505050505050565b60035481565b600160009054906101000a900473ffffffffffffffffffffffffffffffffffffffff1681565b6008602052806000526040600020600091509050806000015490806001018054600181600116156101000203166002900480601f0160208091040260200160405190810160405280929190818152602001828054600181600116156101000203166002900480156114bd5780601f10611492576101008083540402835291602001916114bd565b820191906000526020600020905b8154815290600101906020018083116114a057829003601f168201915b5050505050908060020160009054906101000a900473ffffffffffffffffffffffffffffffffffffffff16908060030160009054906101000a900473ffffffffffffffffffffffffffffffffffffffff16908060040154905085565b60025481565b60006006826040518082805190602001908083835b602083106115575780518252602082019150602081019050602083039250611534565b6001836020036101000a038019825116818451168082178552505050505050905001915050908152602001604051809103902060009054906101000a900473ffffffffffffffffffffffffffffffffffffffff169050919050565b816006846040518082805190602001908083835b602083106115e957805182526020820191506020810190506020830392506115c6565b6001836020036101000a038019825116818451168082178552505050505050905001915050908152602001604051809103902060006101000a81548173ffffffffffffffffffffffffffffffffffffffff021916908373ffffffffffffffffffffffffffffffffffffffff16021790555080600560008473ffffffffffffffffffffffffffffffffffffffff1673ffffffffffffffffffffffffffffffffffffffff16815260200190815260200160002090805190602001906116ad929190611c7a565b5082600760008473ffffffffffffffffffffffffffffffffffffffff1673ffffffffffffffffffffffffffffffffffffffff1681526020019081526020016000209080519060200190611701929190611c7a565b50505050565b6060600760008373ffffffffffffffffffffffffffffffffffffffff1673ffffffffffffffffffffffffffffffffffffffff1681526020019081526020016000208054600181600116156101000203166002900480601f0160208091040260200160405190810160405280929190818152602001828054600181600116156101000203166002900480156117dc5780601f106117b1576101008083540402835291602001916117dc565b820191906000526020600020905b8154815290600101906020018083116117bf57829003601f168201915b50505050509050919050565b6060600560008373ffffffffffffffffffffffffffffffffffffffff1673ffffffffffffffffffffffffffffffffffffffff1681526020019081526020016000208054600181600116156101000203166002900480601f0160208091040260200160405190810160405280929190818152602001828054600181600116156101000203166002900480156118bd5780601f10611892576101008083540402835291602001916118bd565b820191906000526020600020905b8154815290600101906020018083116118a057829003601f168201915b50505050509050919050565b60606000806000600860008681526020019081526020016000206001016008600087815260200190815260200160002060020160009054906101000a900473ffffffffffffffffffffffffffffffffffffffff166008600088815260200190815260200160002060030160009054906101000a900473ffffffffffffffffffffffffffffffffffffffff166008600089815260200190815260200160002060040154838054600181600116156101000203166002900480601f016020809104026020016040519081016040528092919081815260200182805460018160011615610100020316600290048015611a005780601f106119d557610100808354040283529160200191611a00565b820191906000526020600020905b8154815290600101906020018083116119e357829003601f168201915b5050505050935093509350935093509193509193565b60095481565b60056020528060005260406000206000915090508054600181600116156101000203166002900480601f016020809104026020016040519081016040528092919081815260200182805460018160011615610100020316600290048015611ac45780601f10611a9957610100808354040283529160200191611ac4565b820191906000526020600020905b815481529060010190602001808311611aa757829003601f168201915b505050505081565b600080600160009054906101000a900473ffffffffffffffffffffffffffffffffffffffff1673ffffffffffffffffffffffffffffffffffffffff166370a08231846040518263ffffffff1660e01b8152600401808273ffffffffffffffffffffffffffffffffffffffff1673ffffffffffffffffffffffffffffffffffffffff16815260200191505060206040518083038186803b158015611b6e57600080fd5b505afa158015611b82573d6000803e3d6000fd5b505050506040513d6020811015611b9857600080fd5b8101908080519060200190929190505050905080915050919050565b6000818302905092915050565b6000818303905092915050565b600080821480611beb5750828283850292508281611be857fe5b04145b611bf457600080fd5b92915050565b828054600181600116156101000203166002900490600052602060002090601f016020900481019282601f10611c3b57805160ff1916838001178555611c69565b82800160010185558215611c69579182015b82811115611c68578251825591602001919060010190611c4d565b5b509050611c769190611cfa565b5090565b828054600181600116156101000203166002900490600052602060002090601f016020900481019282601f10611cbb57805160ff1916838001178555611ce9565b82800160010185558215611ce9579182015b82811115611ce8578251825591602001919060010190611ccd565b5b509050611cf69190611cfa565b5090565b611d1c91905b80821115611d18576000816000905550600101611d00565b5090565b9056fea265627a7a7231582065476da7f4f3e20b355ced1ce68444e16084eafa591305d5a5a9720338aea11d64736f6c63430005100032",
  "source": "pragma solidity ^0.5.0;\r\n\r\nimport \"./RupeeToken.sol\";\r\n\r\n//import \"@openzeppelin/contracts/math/SafeMath.sol\";\r\n\r\n//import \"https://github.com/OpenZeppelin/openzeppelin-contracts/blob/master/contracts/math/SafeMath.sol\";\r\n\r\nimport \"./SafeMath.sol\";\r\n\r\ncontract freelance {\r\n    address payable admin;\r\n    RupeeToken public tokenContract;\r\n    uint256 public tokenPrice;\r\n    uint256 public tokensSold;\r\n    address public freeaddress;\r\n\r\n    mapping(address => string) public identity;\r\n\r\n    mapping(string => address) nametoadd;\r\n\r\n    mapping(address => string) addtoname;\r\n    event Sell(address _buyer, uint256 _amount);\r\n\r\n    constructor(RupeeToken _tokenContract) public {\r\n        admin = msg.sender;\r\n        tokenContract = _tokenContract;\r\n        tokenPrice = 7400000000000;\r\n    }\r\n\r\n    struct Asset {\r\n        uint256 id;\r\n        string date;\r\n        address senderaddress;\r\n        address receiveraddress;\r\n        uint256 amount;\r\n    }\r\n\r\n    mapping(uint256 => Asset) public AssetStore;\r\n    uint256 public assetCount = 0;\r\n\r\n    /*function createAsset(\r\n        string memory _date,\r\n        string memory senderaddress,\r\n        string memory receiveraddress,\r\n        address  _add,\r\n        string memory _amount\r\n        ) public returns(uint256) {\r\n        assetCount++;\r\n        AssetStore[assetCount]= Asset(assetCount,_date, _transactiontype, _username, _add, _amount);\r\n    }*/\r\n\r\n    function getAsset(uint256 _id)\r\n        public\r\n        view\r\n        returns (\r\n            string memory,\r\n            address,\r\n            address,\r\n            uint256\r\n        )\r\n    {\r\n        return (\r\n            AssetStore[_id].date,\r\n            AssetStore[_id].senderaddress,\r\n            AssetStore[_id].receiveraddress,\r\n            AssetStore[_id].amount\r\n        );\r\n    }\r\n\r\n    function addidentity(\r\n        string memory name,\r\n        address add,\r\n        string memory id\r\n    ) public {\r\n        nametoadd[name] = add;\r\n        identity[add] = id;\r\n        addtoname[add] = name;\r\n    }\r\n\r\n    function calculatetokens(\r\n        uint256 payrate,\r\n        uint256 duration,\r\n        uint256 leaves,\r\n        uint256 leavecost,\r\n        uint256 delayeddays,\r\n        uint256 delaycostperday,\r\n        address from,\r\n        address to,\r\n        string memory _date\r\n    ) public payable returns (uint256) {\r\n        uint256 hourpay;\r\n        uint256 leavepay;\r\n        uint256 delaypay;\r\n        uint256 amount;\r\n        uint256 finalamount;\r\n        hourpay = SafeMath.mul(payrate, duration);\r\n        leavepay = SafeMath.mul(leaves, leavecost);\r\n        delaypay = SafeMath.mul(delayeddays, delaycostperday);\r\n        amount = SafeMath.sub(hourpay, leavepay);\r\n        finalamount = SafeMath.sub(amount, delaypay);\r\n        tokenContract.transfer(from, to, finalamount);\r\n        assetCount++;\r\n        AssetStore[assetCount] = Asset(\r\n            assetCount,\r\n            _date,\r\n            msg.sender,\r\n            to,\r\n            finalamount\r\n        );\r\n\r\n        //amount=payrate*duration - leaves * leavecost - delayeddays * delaycostperday;\r\n    }\r\n\r\n    function sendtokens(\r\n        address from,\r\n        address to,\r\n        uint256 nooftokens,\r\n        string memory date\r\n    ) public {\r\n        tokenContract.transfer(from, to, nooftokens);\r\n        assetCount++;\r\n        AssetStore[assetCount] = Asset(\r\n            assetCount,\r\n            date,\r\n            msg.sender,\r\n            to,\r\n            nooftokens\r\n        );\r\n    }\r\n\r\n    function getidentity(string memory name) public view returns (address) {\r\n        return nametoadd[name];\r\n    }\r\n\r\n    function getIdentityType(address add) public view returns (string memory) {\r\n        return identity[add];\r\n    }\r\n\r\n    function getnamefromaddress(address add)\r\n        public\r\n        view\r\n        returns (string memory)\r\n    {\r\n        return addtoname[add];\r\n    }\r\n\r\n    function multiply(uint256 x, uint256 y) internal pure returns (uint256 z) {\r\n        require(y == 0 || (z = x * y) / y == x);\r\n    }\r\n\r\n    function buyTokens(uint256 _numberOfTokens) public payable {\r\n        require(msg.value == multiply(_numberOfTokens, tokenPrice));\r\n        require(tokenContract.balanceOf(address(this)) >= _numberOfTokens);\r\n        require(tokenContract.transfer2(msg.sender, _numberOfTokens));\r\n\r\n        tokensSold += _numberOfTokens;\r\n\r\n        emit Sell(msg.sender, _numberOfTokens);\r\n    }\r\n\r\n    // function endSale() public {\r\n    //     require(msg.sender == admin);\r\n    //     require(\r\n    //         tokenContract.transfer(\r\n    //             admin,\r\n    //             tokenContract.balanceOf(address(this))\r\n    //         )\r\n    //     );\r\n\r\n    //     // UPDATE: Let's not destroy the contract here\r\n    //     // Just transfer the balance to the admin\r\n    //     admin.transfer(address(this).balance);\r\n    // }\r\n\r\n    function getBalance(address addr) public view returns (uint256) {\r\n        uint256 bal = tokenContract.balanceOf(addr);\r\n        return bal;\r\n    }\r\n}\r\n",
  "sourcePath": "C:\\Users\\Acer\\Desktop\\SPIThack\\SPITHack404\\src\\contracts\\freelance.sol",
  "compiler": {
    "name": "solc",
    "version": "0.5.16+commit.9c3226ce.Emscripten.clang"
  },
  "schemaVersion": "3.0.23",
  "updatedAt": "2021-02-13T20:24:04.636Z",
  "networkType": "ethereum",
  "devdoc": {
    "methods": {}
  },
  "userdoc": {
    "methods": {}
  }
}