{
  "contractName": "freelance",
  "abi": [
    {
      "inputs": [
        {
          "internalType": "contract RupeeToken",
          "name": "_tokenContract",
          "type": "address"
        }
      ],
      "payable": false,
      "stateMutability": "nonpayable",
      "type": "constructor"
    },
    {
      "anonymous": false,
      "inputs": [
        {
          "indexed": false,
          "internalType": "address",
          "name": "_buyer",
          "type": "address"
        },
        {
          "indexed": false,
          "internalType": "uint256",
          "name": "_amount",
          "type": "uint256"
        }
      ],
      "name": "Sell",
      "type": "event"
    },
    {
      "constant": true,
      "inputs": [
        {
          "internalType": "uint256",
          "name": "",
          "type": "uint256"
        }
      ],
      "name": "AssetStore",
      "outputs": [
        {
          "internalType": "uint256",
          "name": "id",
          "type": "uint256"
        },
        {
          "internalType": "string",
          "name": "date",
          "type": "string"
        },
        {
          "internalType": "address",
          "name": "senderaddress",
          "type": "address"
        },
        {
          "internalType": "address",
          "name": "receiveraddress",
          "type": "address"
        },
        {
          "internalType": "uint256",
          "name": "amount",
          "type": "uint256"
        }
      ],
      "payable": false,
      "stateMutability": "view",
      "type": "function"
    },
    {
      "constant": true,
      "inputs": [],
      "name": "assetCount",
      "outputs": [
        {
          "internalType": "uint256",
          "name": "",
          "type": "uint256"
        }
      ],
      "payable": false,
      "stateMutability": "view",
      "type": "function"
    },
    {
      "constant": true,
      "inputs": [],
      "name": "freeaddress",
      "outputs": [
        {
          "internalType": "address",
          "name": "",
          "type": "address"
        }
      ],
      "payable": false,
      "stateMutability": "view",
      "type": "function"
    },
    {
      "constant": true,
      "inputs": [
        {
          "internalType": "address",
          "name": "",
          "type": "address"
        }
      ],
      "name": "identity",
      "outputs": [
        {
          "internalType": "string",
          "name": "",
          "type": "string"
        }
      ],
      "payable": false,
      "stateMutability": "view",
      "type": "function"
    },
    {
      "constant": true,
      "inputs": [],
      "name": "tokenContract",
      "outputs": [
        {
          "internalType": "contract RupeeToken",
          "name": "",
          "type": "address"
        }
      ],
      "payable": false,
      "stateMutability": "view",
      "type": "function"
    },
    {
      "constant": true,
      "inputs": [],
      "name": "tokenPrice",
      "outputs": [
        {
          "internalType": "uint256",
          "name": "",
          "type": "uint256"
        }
      ],
      "payable": false,
      "stateMutability": "view",
      "type": "function"
    },
    {
      "constant": true,
      "inputs": [],
      "name": "tokensSold",
      "outputs": [
        {
          "internalType": "uint256",
          "name": "",
          "type": "uint256"
        }
      ],
      "payable": false,
      "stateMutability": "view",
      "type": "function"
    },
    {
      "constant": true,
      "inputs": [
        {
          "internalType": "uint256",
          "name": "_id",
          "type": "uint256"
        }
      ],
      "name": "getAsset",
      "outputs": [
        {
          "internalType": "string",
          "name": "",
          "type": "string"
        },
        {
          "internalType": "address",
          "name": "",
          "type": "address"
        },
        {
          "internalType": "address",
          "name": "",
          "type": "address"
        },
        {
          "internalType": "uint256",
          "name": "",
          "type": "uint256"
        }
      ],
      "payable": false,
      "stateMutability": "view",
      "type": "function"
    },
    {
      "constant": false,
      "inputs": [
        {
          "internalType": "string",
          "name": "name",
          "type": "string"
        },
        {
          "internalType": "address",
          "name": "add",
          "type": "address"
        },
        {
          "internalType": "string",
          "name": "id",
          "type": "string"
        }
      ],
      "name": "addidentity",
      "outputs": [],
      "payable": false,
      "stateMutability": "nonpayable",
      "type": "function"
    },
    {
      "constant": false,
      "inputs": [
        {
          "internalType": "uint256",
          "name": "payrate",
          "type": "uint256"
        },
        {
          "internalType": "uint256",
          "name": "duration",
          "type": "uint256"
        },
        {
          "internalType": "uint256",
          "name": "leaves",
          "type": "uint256"
        },
        {
          "internalType": "uint256",
          "name": "leavecost",
          "type": "uint256"
        },
        {
          "internalType": "uint256",
          "name": "delayeddays",
          "type": "uint256"
        },
        {
          "internalType": "uint256",
          "name": "delaycostperday",
          "type": "uint256"
        },
        {
          "internalType": "address",
          "name": "to",
          "type": "address"
        },
        {
          "internalType": "string",
          "name": "_date",
          "type": "string"
        }
      ],
      "name": "calculatetokens",
      "outputs": [
        {
          "internalType": "uint256",
          "name": "",
          "type": "uint256"
        }
      ],
      "payable": true,
      "stateMutability": "payable",
      "type": "function"
    },
    {
      "constant": false,
      "inputs": [
        {
          "internalType": "address",
          "name": "to",
          "type": "address"
        },
        {
          "internalType": "uint256",
          "name": "nooftokens",
          "type": "uint256"
        },
        {
          "internalType": "string",
          "name": "date",
          "type": "string"
        }
      ],
      "name": "sendtokens",
      "outputs": [],
      "payable": false,
      "stateMutability": "nonpayable",
      "type": "function"
    },
    {
      "constant": true,
      "inputs": [
        {
          "internalType": "string",
          "name": "name",
          "type": "string"
        }
      ],
      "name": "getidentity",
      "outputs": [
        {
          "internalType": "address",
          "name": "",
          "type": "address"
        }
      ],
      "payable": false,
      "stateMutability": "view",
      "type": "function"
    },
    {
      "constant": false,
      "inputs": [
        {
          "internalType": "uint256",
          "name": "_numberOfTokens",
          "type": "uint256"
        }
      ],
      "name": "buyTokens",
      "outputs": [],
      "payable": true,
      "stateMutability": "payable",
      "type": "function"
    },
    {
      "constant": false,
      "inputs": [],
      "name": "endSale",
      "outputs": [],
      "payable": false,
      "stateMutability": "nonpayable",
      "type": "function"
    },
    {
      "constant": true,
      "inputs": [
        {
          "internalType": "address",
          "name": "addr",
          "type": "address"
        }
      ],
      "name": "getBalance",
      "outputs": [
        {
          "internalType": "uint256",
          "name": "",
          "type": "uint256"
        }
      ],
      "payable": false,
      "stateMutability": "view",
      "type": "function"
    }
  ],
  "bytecode": "0x6080604052600060085534801561001557600080fd5b50604051611c9d380380611c9d8339818101604052602081101561003857600080fd5b8101908080519060200190929190505050336000806101000a81548173ffffffffffffffffffffffffffffffffffffffff021916908373ffffffffffffffffffffffffffffffffffffffff16021790555080600160006101000a81548173ffffffffffffffffffffffffffffffffffffffff021916908373ffffffffffffffffffffffffffffffffffffffff1602179055506506baf25f100060028190555050611bb6806100e76000396000f3fe6080604052600436106100e85760003560e01c8063790f1d7a1161008a578063eac8f5b811610059578063eac8f5b814610803578063eafe7a7414610924578063f0eb5e541461094f578063f8b2cb4f14610a19576100e8565b8063790f1d7a1461045f5780637ff9b59614610551578063a7fa4aa71461057c578063affb290114610684576100e8565b8063380d831b116100c6578063380d831b1461029e578063518ab2a8146102b557806355a373d6146102e057806369e94f9f14610337576100e8565b80630412841d146100ed5780631a435e0a146102195780633610724e14610270575b600080fd5b610203600480360361010081101561010457600080fd5b81019080803590602001909291908035906020019092919080359060200190929190803590602001909291908035906020019092919080359060200190929190803573ffffffffffffffffffffffffffffffffffffffff1690602001909291908035906020019064010000000081111561017d57600080fd5b82018360208201111561018f57600080fd5b803590602001918460018302840111640100000000831117156101b157600080fd5b91908080601f016020809104026020016040519081016040528093929190818152602001838380828437600081840152601f19601f820116905080830192505050505050509192919290505050610a7e565b6040518082815260200191505060405180910390f35b34801561022557600080fd5b5061022e610cf7565b604051808273ffffffffffffffffffffffffffffffffffffffff1673ffffffffffffffffffffffffffffffffffffffff16815260200191505060405180910390f35b61029c6004803603602081101561028657600080fd5b8101908080359060200190929190505050610d1d565b005b3480156102aa57600080fd5b506102b3610f85565b005b3480156102c157600080fd5b506102ca61122f565b6040518082815260200191505060405180910390f35b3480156102ec57600080fd5b506102f5611235565b604051808273ffffffffffffffffffffffffffffffffffffffff1673ffffffffffffffffffffffffffffffffffffffff16815260200191505060405180910390f35b34801561034357600080fd5b506103706004803603602081101561035a57600080fd5b810190808035906020019092919050505061125b565b60405180868152602001806020018573ffffffffffffffffffffffffffffffffffffffff1673ffffffffffffffffffffffffffffffffffffffff1681526020018473ffffffffffffffffffffffffffffffffffffffff1673ffffffffffffffffffffffffffffffffffffffff168152602001838152602001828103825286818151815260200191508051906020019080838360005b83811015610420578082015181840152602081019050610405565b50505050905090810190601f16801561044d5780820380516001836020036101000a031916815260200191505b50965050505050505060405180910390f35b34801561046b57600080fd5b5061054f6004803603606081101561048257600080fd5b81019080803573ffffffffffffffffffffffffffffffffffffffff16906020019092919080359060200190929190803590602001906401000000008111156104c957600080fd5b8201836020820111156104db57600080fd5b803590602001918460018302840111640100000000831117156104fd57600080fd5b91908080601f016020809104026020016040519081016040528093929190818152602001838380828437600081840152601f19601f820116905080830192505050505050509192919290505050611369565b005b34801561055d57600080fd5b50610566611591565b6040518082815260200191505060405180910390f35b34801561058857600080fd5b506106426004803603602081101561059f57600080fd5b81019080803590602001906401000000008111156105bc57600080fd5b8201836020820111156105ce57600080fd5b803590602001918460018302840111640100000000831117156105f057600080fd5b91908080601f016020809104026020016040519081016040528093929190818152602001838380828437600081840152601f19601f820116905080830192505050505050509192919290505050611597565b604051808273ffffffffffffffffffffffffffffffffffffffff1673ffffffffffffffffffffffffffffffffffffffff16815260200191505060405180910390f35b34801561069057600080fd5b50610801600480360360608110156106a757600080fd5b81019080803590602001906401000000008111156106c457600080fd5b8201836020820111156106d657600080fd5b803590602001918460018302840111640100000000831117156106f857600080fd5b91908080601f016020809104026020016040519081016040528093929190818152602001838380828437600081840152601f19601f820116905080830192505050505050509192919290803573ffffffffffffffffffffffffffffffffffffffff1690602001909291908035906020019064010000000081111561077b57600080fd5b82018360208201111561078d57600080fd5b803590602001918460018302840111640100000000831117156107af57600080fd5b91908080601f016020809104026020016040519081016040528093929190818152602001838380828437600081840152601f19601f82011690508083019250505050505050919291929050505061162a565b005b34801561080f57600080fd5b5061083c6004803603602081101561082657600080fd5b810190808035906020019092919050505061172b565b60405180806020018573ffffffffffffffffffffffffffffffffffffffff1673ffffffffffffffffffffffffffffffffffffffff1681526020018473ffffffffffffffffffffffffffffffffffffffff1673ffffffffffffffffffffffffffffffffffffffff168152602001838152602001828103825286818151815260200191508051906020019080838360005b838110156108e65780820151818401526020810190506108cb565b50505050905090810190601f1680156109135780820380516001836020036101000a031916815260200191505b509550505050505060405180910390f35b34801561093057600080fd5b50610939611878565b6040518082815260200191505060405180910390f35b34801561095b57600080fd5b5061099e6004803603602081101561097257600080fd5b81019080803573ffffffffffffffffffffffffffffffffffffffff16906020019092919050505061187e565b6040518080602001828103825283818151815260200191508051906020019080838360005b838110156109de5780820151818401526020810190506109c3565b50505050905090810190601f168015610a0b5780820380516001836020036101000a031916815260200191505b509250505060405180910390f35b348015610a2557600080fd5b50610a6860048036036020811015610a3c57600080fd5b81019080803573ffffffffffffffffffffffffffffffffffffffff16906020019092919050505061192e565b6040518082815260200191505060405180910390f35b600080600080600080610a918e8e611a16565b9450610a9d8c8c611a16565b9350610aa98a8a611a16565b9250610ab58585611a23565b9150610ac18284611a23565b9050600160009054906101000a900473ffffffffffffffffffffffffffffffffffffffff1673ffffffffffffffffffffffffffffffffffffffff1663a9059cbb89836040518363ffffffff1660e01b8152600401808373ffffffffffffffffffffffffffffffffffffffff1673ffffffffffffffffffffffffffffffffffffffff16815260200182815260200192505050602060405180830381600087803b158015610b6c57600080fd5b505af1158015610b80573d6000803e3d6000fd5b505050506040513d6020811015610b9657600080fd5b8101908080519060200190929190505050506008600081548092919060010191905055506040518060a0016040528060085481526020018881526020013373ffffffffffffffffffffffffffffffffffffffff1681526020018973ffffffffffffffffffffffffffffffffffffffff16815260200182815250600760006008548152602001908152602001600020600082015181600001556020820151816001019080519060200190610c4a929190611a5c565b5060408201518160020160006101000a81548173ffffffffffffffffffffffffffffffffffffffff021916908373ffffffffffffffffffffffffffffffffffffffff16021790555060608201518160030160006101000a81548173ffffffffffffffffffffffffffffffffffffffff021916908373ffffffffffffffffffffffffffffffffffffffff16021790555060808201518160040155905050505050505098975050505050505050565b600460009054906101000a900473ffffffffffffffffffffffffffffffffffffffff1681565b610d2981600254611a30565b3414610d3457600080fd5b80600160009054906101000a900473ffffffffffffffffffffffffffffffffffffffff1673ffffffffffffffffffffffffffffffffffffffff166370a08231306040518263ffffffff1660e01b8152600401808273ffffffffffffffffffffffffffffffffffffffff1673ffffffffffffffffffffffffffffffffffffffff16815260200191505060206040518083038186803b158015610dd457600080fd5b505afa158015610de8573d6000803e3d6000fd5b505050506040513d6020811015610dfe57600080fd5b81019080805190602001909291905050501015610e1a57600080fd5b600160009054906101000a900473ffffffffffffffffffffffffffffffffffffffff1673ffffffffffffffffffffffffffffffffffffffff1663a9059cbb33836040518363ffffffff1660e01b8152600401808373ffffffffffffffffffffffffffffffffffffffff1673ffffffffffffffffffffffffffffffffffffffff16815260200182815260200192505050602060405180830381600087803b158015610ec357600080fd5b505af1158015610ed7573d6000803e3d6000fd5b505050506040513d6020811015610eed57600080fd5b8101908080519060200190929190505050610f0757600080fd5b806003600082825401925050819055507f5e5e995ce3133561afceaa51a9a154d5db228cd7525d34df5185582c18d3df093382604051808373ffffffffffffffffffffffffffffffffffffffff1673ffffffffffffffffffffffffffffffffffffffff1681526020018281526020019250505060405180910390a150565b6000809054906101000a900473ffffffffffffffffffffffffffffffffffffffff1673ffffffffffffffffffffffffffffffffffffffff163373ffffffffffffffffffffffffffffffffffffffff1614610fde57600080fd5b600160009054906101000a900473ffffffffffffffffffffffffffffffffffffffff1673ffffffffffffffffffffffffffffffffffffffff1663a9059cbb6000809054906101000a900473ffffffffffffffffffffffffffffffffffffffff16600160009054906101000a900473ffffffffffffffffffffffffffffffffffffffff1673ffffffffffffffffffffffffffffffffffffffff166370a08231306040518263ffffffff1660e01b8152600401808273ffffffffffffffffffffffffffffffffffffffff1673ffffffffffffffffffffffffffffffffffffffff16815260200191505060206040518083038186803b1580156110dd57600080fd5b505afa1580156110f1573d6000803e3d6000fd5b505050506040513d602081101561110757600080fd5b81019080805190602001909291905050506040518363ffffffff1660e01b8152600401808373ffffffffffffffffffffffffffffffffffffffff1673ffffffffffffffffffffffffffffffffffffffff16815260200182815260200192505050602060405180830381600087803b15801561118157600080fd5b505af1158015611195573d6000803e3d6000fd5b505050506040513d60208110156111ab57600080fd5b81019080805190602001909291905050506111c557600080fd5b6000809054906101000a900473ffffffffffffffffffffffffffffffffffffffff1673ffffffffffffffffffffffffffffffffffffffff166108fc479081150290604051600060405180830381858888f1935050505015801561122c573d6000803e3d6000fd5b50565b60035481565b600160009054906101000a900473ffffffffffffffffffffffffffffffffffffffff1681565b6007602052806000526040600020600091509050806000015490806001018054600181600116156101000203166002900480601f01602080910402602001604051908101604052809291908181526020018280546001816001161561010002031660029004801561130d5780601f106112e25761010080835404028352916020019161130d565b820191906000526020600020905b8154815290600101906020018083116112f057829003601f168201915b5050505050908060020160009054906101000a900473ffffffffffffffffffffffffffffffffffffffff16908060030160009054906101000a900473ffffffffffffffffffffffffffffffffffffffff16908060040154905085565b600160009054906101000a900473ffffffffffffffffffffffffffffffffffffffff1673ffffffffffffffffffffffffffffffffffffffff1663a9059cbb84846040518363ffffffff1660e01b8152600401808373ffffffffffffffffffffffffffffffffffffffff1673ffffffffffffffffffffffffffffffffffffffff16815260200182815260200192505050602060405180830381600087803b15801561141257600080fd5b505af1158015611426573d6000803e3d6000fd5b505050506040513d602081101561143c57600080fd5b8101908080519060200190929190505050506008600081548092919060010191905055506040518060a0016040528060085481526020018281526020013373ffffffffffffffffffffffffffffffffffffffff1681526020018473ffffffffffffffffffffffffffffffffffffffff168152602001838152506007600060085481526020019081526020016000206000820151816000015560208201518160010190805190602001906114f0929190611a5c565b5060408201518160020160006101000a81548173ffffffffffffffffffffffffffffffffffffffff021916908373ffffffffffffffffffffffffffffffffffffffff16021790555060608201518160030160006101000a81548173ffffffffffffffffffffffffffffffffffffffff021916908373ffffffffffffffffffffffffffffffffffffffff16021790555060808201518160040155905050505050565b60025481565b60006006826040518082805190602001908083835b602083106115cf57805182526020820191506020810190506020830392506115ac565b6001836020036101000a038019825116818451168082178552505050505050905001915050908152602001604051809103902060009054906101000a900473ffffffffffffffffffffffffffffffffffffffff169050919050565b816006846040518082805190602001908083835b60208310611661578051825260208201915060208101905060208303925061163e565b6001836020036101000a038019825116818451168082178552505050505050905001915050908152602001604051809103902060006101000a81548173ffffffffffffffffffffffffffffffffffffffff021916908373ffffffffffffffffffffffffffffffffffffffff16021790555080600560008473ffffffffffffffffffffffffffffffffffffffff1673ffffffffffffffffffffffffffffffffffffffff1681526020019081526020016000209080519060200190611725929190611adc565b50505050565b60606000806000600760008681526020019081526020016000206001016007600087815260200190815260200160002060020160009054906101000a900473ffffffffffffffffffffffffffffffffffffffff166007600088815260200190815260200160002060030160009054906101000a900473ffffffffffffffffffffffffffffffffffffffff166007600089815260200190815260200160002060040154838054600181600116156101000203166002900480601f0160208091040260200160405190810160405280929190818152602001828054600181600116156101000203166002900480156118625780601f1061183757610100808354040283529160200191611862565b820191906000526020600020905b81548152906001019060200180831161184557829003601f168201915b5050505050935093509350935093509193509193565b60085481565b60056020528060005260406000206000915090508054600181600116156101000203166002900480601f0160208091040260200160405190810160405280929190818152602001828054600181600116156101000203166002900480156119265780601f106118fb57610100808354040283529160200191611926565b820191906000526020600020905b81548152906001019060200180831161190957829003601f168201915b505050505081565b600080600160009054906101000a900473ffffffffffffffffffffffffffffffffffffffff1673ffffffffffffffffffffffffffffffffffffffff166370a08231846040518263ffffffff1660e01b8152600401808273ffffffffffffffffffffffffffffffffffffffff1673ffffffffffffffffffffffffffffffffffffffff16815260200191505060206040518083038186803b1580156119d057600080fd5b505afa1580156119e4573d6000803e3d6000fd5b505050506040513d60208110156119fa57600080fd5b8101908080519060200190929190505050905080915050919050565b6000818302905092915050565b6000818303905092915050565b600080821480611a4d5750828283850292508281611a4a57fe5b04145b611a5657600080fd5b92915050565b828054600181600116156101000203166002900490600052602060002090601f016020900481019282601f10611a9d57805160ff1916838001178555611acb565b82800160010185558215611acb579182015b82811115611aca578251825591602001919060010190611aaf565b5b509050611ad89190611b5c565b5090565b828054600181600116156101000203166002900490600052602060002090601f016020900481019282601f10611b1d57805160ff1916838001178555611b4b565b82800160010185558215611b4b579182015b82811115611b4a578251825591602001919060010190611b2f565b5b509050611b589190611b5c565b5090565b611b7e91905b80821115611b7a576000816000905550600101611b62565b5090565b9056fea265627a7a72315820e77e32587e5f1b9568023a40d58be7c3972f96508249b69bfeb027027af97b7e64736f6c63430005100032",
  "source": "pragma solidity ^0.5.0;\r\n\r\nimport \"./RupeeToken.sol\";\r\n\r\n//import \"@openzeppelin/contracts/math/SafeMath.sol\";\r\n\r\n//import \"https://github.com/OpenZeppelin/openzeppelin-contracts/blob/master/contracts/math/SafeMath.sol\";\r\n\r\nimport \"./SafeMath.sol\";\r\n\r\ncontract freelance {\r\n    address payable admin;\r\n    RupeeToken public tokenContract;\r\n    uint256 public tokenPrice;\r\n    uint256 public tokensSold;\r\n    address public freeaddress;\r\n    \r\n    mapping (address=>string) public identity;\r\n    \r\n    mapping (string=>address) nametoadd;\r\n    \r\n    event Sell(address _buyer, uint256 _amount);\r\n\r\n    constructor(RupeeToken _tokenContract) public {\r\n        admin = msg.sender;\r\n        tokenContract = _tokenContract;\r\n        tokenPrice=7400000000000;\r\n    }\r\n    \r\n    struct Asset {\r\n        uint id;\r\n        string date;\r\n        address senderaddress;\r\n        address receiveraddress;\r\n        uint amount;\r\n    }\r\n    \r\n    mapping(uint => Asset) public AssetStore;\r\n    uint256 public assetCount= 0;\r\n    \r\n    /*function createAsset(\r\n        string memory _date,\r\n        string memory senderaddress,\r\n        string memory receiveraddress,\r\n        address  _add,\r\n        string memory _amount\r\n        ) public returns(uint256) {\r\n        assetCount++;\r\n        AssetStore[assetCount]= Asset(assetCount,_date, _transactiontype, _username, _add, _amount);\r\n    }*/\r\n\r\n    function getAsset(uint _id) view public returns(string memory, address, address , uint)\r\n    {\r\n        return (AssetStore[_id].date, AssetStore[_id].senderaddress, AssetStore[_id].receiveraddress, AssetStore[_id].amount);\r\n    }\r\n    \r\n    \r\n     function addidentity(string memory name,address add,string memory id) public \r\n    {\r\n        nametoadd[name]=add;\r\n        identity[add]=id;\r\n    }\r\n    \r\n    \r\n    function calculatetokens(uint payrate,uint duration,uint leaves,uint leavecost,uint delayeddays,uint delaycostperday,address to,string memory _date)public payable returns(uint)\r\n    {\r\n        uint hourpay;\r\n        uint leavepay;\r\n        uint delaypay;\r\n        uint amount;\r\n        uint finalamount;\r\n        hourpay=SafeMath.mul(payrate,duration);\r\n        leavepay=SafeMath.mul(leaves,leavecost);\r\n        delaypay=SafeMath.mul(delayeddays,delaycostperday);\r\n        amount=SafeMath.sub(hourpay,leavepay);\r\n        finalamount=SafeMath.sub(amount,delaypay);\r\n        tokenContract.transfer(to,finalamount);\r\n        assetCount++;\r\n        AssetStore[assetCount]= Asset(assetCount,_date,msg.sender,to, finalamount);\r\n        \r\n        \r\n        //amount=payrate*duration - leaves * leavecost - delayeddays * delaycostperday;\r\n    }\r\n    \r\n    function sendtokens(address to,uint nooftokens,string memory date) public\r\n    {\r\n        tokenContract.transfer(to,nooftokens);\r\n        assetCount++;\r\n        AssetStore[assetCount]= Asset(assetCount,date,msg.sender,to, nooftokens);\r\n    }\r\n    \r\n    function getidentity(string memory name) public view returns(address)\r\n    {\r\n        return nametoadd[name];\r\n    }\r\n    \r\n   \r\n    \r\n    \r\n    \r\n\r\n   function multiply(uint x, uint y) internal pure returns (uint z) {\r\n        require(y == 0 || (z = x * y) / y == x);\r\n    }\r\n    \r\n\r\n    function buyTokens(uint256 _numberOfTokens) public payable \r\n    {\r\n        require(msg.value == multiply(_numberOfTokens, tokenPrice));\r\n        require(tokenContract.balanceOf(address(this)) >= _numberOfTokens);\r\n        require(tokenContract.transfer(msg.sender, _numberOfTokens));\r\n\r\n        tokensSold += _numberOfTokens;\r\n\r\n        emit Sell(msg.sender, _numberOfTokens);\r\n    }\r\n\r\n    function endSale() public {\r\n        require(msg.sender == admin);\r\n        require(tokenContract.transfer(admin, tokenContract.balanceOf(address(this))));\r\n\r\n        // UPDATE: Let's not destroy the contract here\r\n        // Just transfer the balance to the admin\r\n        admin.transfer(address(this).balance);\r\n    }\r\n    \r\n    function getBalance(address addr)public view returns(uint)\r\n    {\r\n        uint bal=tokenContract.balanceOf(addr);\r\n        return bal;\r\n    }\r\n}\r\n",
  "sourcePath": "D:/spithackathonproject/trytruffledeploy/contracts/freelance.sol",
  "compiler": {
    "name": "solc",
    "version": "0.5.16+commit.9c3226ce.Emscripten.clang"
  },
  "schemaVersion": "3.3.2",
  "updatedAt": "2021-02-13T10:37:17.368Z",
  "networkType": "ethereum",
  "devdoc": {
    "methods": {}
  },
  "userdoc": {
    "methods": {}
  }
}